{
  "_format": "hh-sol-artifact-1",
  "contractName": "ERC721A",
  "sourceName": "contracts/ERC721A.sol",
  "abi": [
    {
      "inputs": [
        {
          "internalType": "string",
          "name": "name_",
          "type": "string"
        },
        {
          "internalType": "string",
          "name": "symbol_",
          "type": "string"
        },
        {
          "internalType": "uint256",
          "name": "collectionSize_",
          "type": "uint256"
        }
      ],
      "stateMutability": "nonpayable",
      "type": "constructor"
    },
    {
      "anonymous": false,
      "inputs": [
        {
          "indexed": true,
          "internalType": "address",
          "name": "owner",
          "type": "address"
        },
        {
          "indexed": true,
          "internalType": "address",
          "name": "approved",
          "type": "address"
        },
        {
          "indexed": true,
          "internalType": "uint256",
          "name": "tokenId",
          "type": "uint256"
        }
      ],
      "name": "Approval",
      "type": "event"
    },
    {
      "anonymous": false,
      "inputs": [
        {
          "indexed": true,
          "internalType": "address",
          "name": "owner",
          "type": "address"
        },
        {
          "indexed": true,
          "internalType": "address",
          "name": "operator",
          "type": "address"
        },
        {
          "indexed": false,
          "internalType": "bool",
          "name": "approved",
          "type": "bool"
        }
      ],
      "name": "ApprovalForAll",
      "type": "event"
    },
    {
      "anonymous": false,
      "inputs": [
        {
          "indexed": true,
          "internalType": "address",
          "name": "from",
          "type": "address"
        },
        {
          "indexed": true,
          "internalType": "address",
          "name": "to",
          "type": "address"
        },
        {
          "indexed": true,
          "internalType": "uint256",
          "name": "tokenId",
          "type": "uint256"
        }
      ],
      "name": "Transfer",
      "type": "event"
    },
    {
      "inputs": [
        {
          "internalType": "address",
          "name": "to",
          "type": "address"
        },
        {
          "internalType": "uint256",
          "name": "tokenId",
          "type": "uint256"
        }
      ],
      "name": "approve",
      "outputs": [],
      "stateMutability": "nonpayable",
      "type": "function"
    },
    {
      "inputs": [
        {
          "internalType": "address",
          "name": "owner",
          "type": "address"
        }
      ],
      "name": "balanceOf",
      "outputs": [
        {
          "internalType": "uint256",
          "name": "",
          "type": "uint256"
        }
      ],
      "stateMutability": "view",
      "type": "function"
    },
    {
      "inputs": [
        {
          "internalType": "uint256",
          "name": "tokenId",
          "type": "uint256"
        }
      ],
      "name": "getApproved",
      "outputs": [
        {
          "internalType": "address",
          "name": "",
          "type": "address"
        }
      ],
      "stateMutability": "view",
      "type": "function"
    },
    {
      "inputs": [
        {
          "internalType": "address",
          "name": "owner",
          "type": "address"
        },
        {
          "internalType": "address",
          "name": "operator",
          "type": "address"
        }
      ],
      "name": "isApprovedForAll",
      "outputs": [
        {
          "internalType": "bool",
          "name": "",
          "type": "bool"
        }
      ],
      "stateMutability": "view",
      "type": "function"
    },
    {
      "inputs": [],
      "name": "name",
      "outputs": [
        {
          "internalType": "string",
          "name": "",
          "type": "string"
        }
      ],
      "stateMutability": "view",
      "type": "function"
    },
    {
      "inputs": [
        {
          "internalType": "uint256",
          "name": "tokenId",
          "type": "uint256"
        }
      ],
      "name": "ownerOf",
      "outputs": [
        {
          "internalType": "address",
          "name": "",
          "type": "address"
        }
      ],
      "stateMutability": "view",
      "type": "function"
    },
    {
      "inputs": [
        {
          "internalType": "address",
          "name": "from",
          "type": "address"
        },
        {
          "internalType": "address",
          "name": "to",
          "type": "address"
        },
        {
          "internalType": "uint256",
          "name": "tokenId",
          "type": "uint256"
        }
      ],
      "name": "safeTransferFrom",
      "outputs": [],
      "stateMutability": "nonpayable",
      "type": "function"
    },
    {
      "inputs": [
        {
          "internalType": "address",
          "name": "from",
          "type": "address"
        },
        {
          "internalType": "address",
          "name": "to",
          "type": "address"
        },
        {
          "internalType": "uint256",
          "name": "tokenId",
          "type": "uint256"
        },
        {
          "internalType": "bytes",
          "name": "_data",
          "type": "bytes"
        }
      ],
      "name": "safeTransferFrom",
      "outputs": [],
      "stateMutability": "nonpayable",
      "type": "function"
    },
    {
      "inputs": [
        {
          "internalType": "address",
          "name": "operator",
          "type": "address"
        },
        {
          "internalType": "bool",
          "name": "approved",
          "type": "bool"
        }
      ],
      "name": "setApprovalForAll",
      "outputs": [],
      "stateMutability": "nonpayable",
      "type": "function"
    },
    {
      "inputs": [
        {
          "internalType": "bytes4",
          "name": "interfaceId",
          "type": "bytes4"
        }
      ],
      "name": "supportsInterface",
      "outputs": [
        {
          "internalType": "bool",
          "name": "",
          "type": "bool"
        }
      ],
      "stateMutability": "view",
      "type": "function"
    },
    {
      "inputs": [],
      "name": "symbol",
      "outputs": [
        {
          "internalType": "string",
          "name": "",
          "type": "string"
        }
      ],
      "stateMutability": "view",
      "type": "function"
    },
    {
      "inputs": [
        {
          "internalType": "uint256",
          "name": "index",
          "type": "uint256"
        }
      ],
      "name": "tokenByIndex",
      "outputs": [
        {
          "internalType": "uint256",
          "name": "",
          "type": "uint256"
        }
      ],
      "stateMutability": "view",
      "type": "function"
    },
    {
      "inputs": [
        {
          "internalType": "address",
          "name": "owner",
          "type": "address"
        },
        {
          "internalType": "uint256",
          "name": "index",
          "type": "uint256"
        }
      ],
      "name": "tokenOfOwnerByIndex",
      "outputs": [
        {
          "internalType": "uint256",
          "name": "",
          "type": "uint256"
        }
      ],
      "stateMutability": "view",
      "type": "function"
    },
    {
      "inputs": [
        {
          "internalType": "uint256",
          "name": "tokenId",
          "type": "uint256"
        }
      ],
      "name": "tokenURI",
      "outputs": [
        {
          "internalType": "string",
          "name": "",
          "type": "string"
        }
      ],
      "stateMutability": "view",
      "type": "function"
    },
    {
      "inputs": [],
      "name": "totalSupply",
      "outputs": [
        {
          "internalType": "uint256",
          "name": "",
          "type": "uint256"
        }
      ],
      "stateMutability": "view",
      "type": "function"
    },
    {
      "inputs": [
        {
          "internalType": "address",
          "name": "from",
          "type": "address"
        },
        {
          "internalType": "address",
          "name": "to",
          "type": "address"
        },
        {
          "internalType": "uint256",
          "name": "tokenId",
          "type": "uint256"
        }
      ],
      "name": "transferFrom",
      "outputs": [],
      "stateMutability": "nonpayable",
      "type": "function"
    }
  ],
  "bytecode": "0x60a0604052600080553480156200001557600080fd5b5060405162001999380380620019998339810160408190526200003891620001f5565b60008111620000645760405162461bcd60e51b81526004016200005b9062000265565b60405180910390fd5b8251620000799060019060208601906200009c565b5081516200008f9060029060208501906200009c565b5060805250620003069050565b828054620000aa90620002b3565b90600052602060002090601f016020900481019282620000ce576000855562000119565b82601f10620000e957805160ff191683800117855562000119565b8280016001018555821562000119579182015b8281111562000119578251825591602001919060010190620000fc565b50620001279291506200012b565b5090565b5b808211156200012757600081556001016200012c565b600082601f83011262000153578081fd5b81516001600160401b0380821115620001705762000170620002f0565b604051601f8301601f19908116603f011681019082821181831017156200019b576200019b620002f0565b81604052838152602092508683858801011115620001b7578485fd5b8491505b83821015620001da5785820183015181830184015290820190620001bb565b83821115620001eb57848385830101525b9695505050505050565b6000806000606084860312156200020a578283fd5b83516001600160401b038082111562000221578485fd5b6200022f8783880162000142565b9450602086015191508082111562000245578384fd5b50620002548682870162000142565b925050604084015190509250925092565b6020808252602e908201527f455243373231413a20636f6c6c656374696f6e206d757374206861766520612060408201526d6e6f6e7a65726f20737570706c7960901b606082015260800190565b600281046001821680620002c857607f821691505b60208210811415620002ea57634e487b7160e01b600052602260045260246000fd5b50919050565b634e487b7160e01b600052604160045260246000fd5b608051611670620003296000396000818161046f015261056f01526116706000f3fe608060405234801561001057600080fd5b50600436106101005760003560e01c80634f6ccce711610097578063a22cb46511610066578063a22cb46514610207578063b88d4fde1461021a578063c87b56dd1461022d578063e985e9c51461024057610100565b80634f6ccce7146101c65780636352211e146101d957806370a08231146101ec57806395d89b41146101ff57610100565b806318160ddd116100d357806318160ddd1461017857806323b872dd1461018d5780632f745c59146101a057806342842e0e146101b357610100565b806301ffc9a71461010557806306fdde031461012e578063081812fc14610143578063095ea7b314610163575b600080fd5b610118610113366004610fe5565b610253565b60405161012591906110e1565b60405180910390f35b6101366102b6565b60405161012591906110ec565b61015661015136600461101d565b610348565b6040516101259190611090565b610176610171366004610fbc565b610394565b005b61018061042d565b60405161012591906114fd565b61017661019b366004610e72565b610433565b6101806101ae366004610fbc565b61043e565b6101766101c1366004610e72565b610550565b6101806101d436600461101d565b61056b565b6101566101e736600461101d565b6105b1565b6101806101fa366004610e26565b6105c3565b610136610607565b610176610215366004610f82565b610616565b610176610228366004610ead565b6106e4565b61013661023b36600461101d565b61071d565b61011861024e366004610e40565b6107a0565b60006001600160e01b031982166380ac58cd60e01b148061028457506001600160e01b03198216635b5e139f60e01b145b8061029f57506001600160e01b0319821663780e9d6360e01b145b806102ae57506102ae826107ce565b90505b919050565b6060600180546102c590611575565b80601f01602080910402602001604051908101604052809291908181526020018280546102f190611575565b801561033e5780601f106103135761010080835404028352916020019161033e565b820191906000526020600020905b81548152906001019060200180831161032157829003601f168201915b5050505050905090565b6000610353826107e7565b6103785760405162461bcd60e51b815260040161036f906114b0565b60405180910390fd5b506000908152600560205260409020546001600160a01b031690565b600061039f826105b1565b9050806001600160a01b0316836001600160a01b031614156103d35760405162461bcd60e51b815260040161036f906113cd565b806001600160a01b03166103e5610804565b6001600160a01b0316148061040157506104018161024e610804565b61041d5760405162461bcd60e51b815260040161036f906111d0565b610428838383610808565b505050565b60005490565b610428838383610864565b6000610449836105c3565b82106104675760405162461bcd60e51b815260040161036f906110ff565b60008060005b7f00000000000000000000000000000000000000000000000000000000000000008111610531576000818152600360209081526040918290208251808401909352546001600160a01b038116808452600160a01b90910467ffffffffffffffff1691830191909152156104df57805192505b866001600160a01b0316836001600160a01b0316141561051e578584141561050c5750925061054a915050565b83610516816115b0565b945050600092505b5080610529816115b0565b91505061046d565b5060405162461bcd60e51b815260040161036f90611462565b92915050565b610428838383604051806020016040528060008152506106e4565b60007f00000000000000000000000000000000000000000000000000000000000000008211156105ad5760405162461bcd60e51b815260040161036f90611396565b5090565b60006105bc82610b33565b5192915050565b60006001600160a01b0382166105eb5760405162461bcd60e51b815260040161036f9061122d565b506001600160a01b031660009081526004602052604090205490565b6060600280546102c590611575565b61061e610804565b6001600160a01b0316826001600160a01b0316141561064f5760405162461bcd60e51b815260040161036f9061130d565b806006600061065c610804565b6001600160a01b03908116825260208083019390935260409182016000908120918716808252919093529120805460ff1916921515929092179091556106a0610804565b6001600160a01b03167f17307eab39ab6107e8899845ad3d59bd9653f200f220920489ca2b5937696c31836040516106d891906110e1565b60405180910390a35050565b6106ef848484610864565b6106fb84848484610ba0565b6107175760405162461bcd60e51b815260040161036f9061140f565b50505050565b6060610728826107e7565b6107445760405162461bcd60e51b815260040161036f906112be565b600061074e610cbc565b9050600081511161076e5760405180602001604052806000815250610799565b8061077884610cce565b604051602001610789929190611061565b6040516020818303038152906040525b9392505050565b6001600160a01b03918216600090815260066020908152604080832093909416825291909152205460ff1690565b6001600160e01b031981166301ffc9a760e01b14919050565b6000908152600360205260409020546001600160a01b0316151590565b3390565b60008281526005602052604080822080546001600160a01b0319166001600160a01b0387811691821790925591518593918516917f8c5be1e5ebec7d5bd14f71427d1e84f3dd0314c0f7b2291e5b200ac8c7c3b92591a4505050565b600061086f82610b33565b9050600081600001516001600160a01b0316610889610804565b6001600160a01b031614806108be57506108a1610804565b6001600160a01b03166108b384610348565b6001600160a01b0316145b806108d2575081516108d29061024e610804565b9050806108f15760405162461bcd60e51b815260040161036f90611344565b846001600160a01b031682600001516001600160a01b0316146109265760405162461bcd60e51b815260040161036f90611278565b6001600160a01b03841661094c5760405162461bcd60e51b815260040161036f9061118b565b6109598585856001610717565b6109696000848460000151610808565b6001600160a01b0385166000908152600460205260408120805460019290610992908490611532565b90915550506001600160a01b03841660009081526004602052604081208054600192906109c0908490611506565b90915550506040805180820182526001600160a01b03808716825267ffffffffffffffff428116602080850191825260008981526003909152948520935184549151909216600160a01b0267ffffffffffffffff60a01b19929093166001600160a01b03199091161716179055610a38846001611506565b6000818152600360205260409020549091506001600160a01b0316610add57610a60816107e7565b15610add5760408051808201825284516001600160a01b03908116825260208087015167ffffffffffffffff90811682850190815260008781526003909352949091209251835494516001600160a01b031990951692169190911767ffffffffffffffff60a01b1916600160a01b93909116929092029190911790555b83856001600160a01b0316876001600160a01b03167fddf252ad1be2c89b69c2b068fc378daa952ba7f163c4a11628f55a4df523b3ef60405160405180910390a4610b2b8686866001610717565b505050505050565b610b3b610df8565b610b44826107e7565b610b605760405162461bcd60e51b815260040161036f90611141565b506000908152600360209081526040918290208251808401909352546001600160a01b0381168352600160a01b900467ffffffffffffffff169082015290565b6000610bb4846001600160a01b0316610de9565b15610cb057836001600160a01b031663150b7a02610bd0610804565b8786866040518563ffffffff1660e01b8152600401610bf294939291906110a4565b602060405180830381600087803b158015610c0c57600080fd5b505af1925050508015610c3c575060408051601f3d908101601f19168201909252610c3991810190611001565b60015b610c96573d808015610c6a576040519150601f19603f3d011682016040523d82523d6000602084013e610c6f565b606091505b508051610c8e5760405162461bcd60e51b815260040161036f9061140f565b805181602001fd5b6001600160e01b031916630a85bd0160e11b149050610cb4565b5060015b949350505050565b60408051602081019091526000815290565b606081610cf357506040805180820190915260018152600360fc1b60208201526102b1565b8160005b8115610d1d5780610d07816115b0565b9150610d169050600a8361151e565b9150610cf7565b60008167ffffffffffffffff811115610d4657634e487b7160e01b600052604160045260246000fd5b6040519080825280601f01601f191660200182016040528015610d70576020820181803683370190505b5090505b8415610cb457610d85600183611532565b9150610d92600a866115cb565b610d9d906030611506565b60f81b818381518110610dc057634e487b7160e01b600052603260045260246000fd5b60200101906001600160f81b031916908160001a905350610de2600a8661151e565b9450610d74565b6001600160a01b03163b151590565b604080518082019091526000808252602082015290565b80356001600160a01b03811681146102b157600080fd5b600060208284031215610e37578081fd5b61079982610e0f565b60008060408385031215610e52578081fd5b610e5b83610e0f565b9150610e6960208401610e0f565b90509250929050565b600080600060608486031215610e86578081fd5b610e8f84610e0f565b9250610e9d60208501610e0f565b9150604084013590509250925092565b60008060008060808587031215610ec2578081fd5b610ecb85610e0f565b9350610ed960208601610e0f565b925060408501359150606085013567ffffffffffffffff80821115610efc578283fd5b818701915087601f830112610f0f578283fd5b813581811115610f2157610f2161160b565b604051601f8201601f19908116603f01168101908382118183101715610f4957610f4961160b565b816040528281528a6020848701011115610f61578586fd5b82602086016020830137918201602001949094529598949750929550505050565b60008060408385031215610f94578182fd5b610f9d83610e0f565b915060208301358015158114610fb1578182fd5b809150509250929050565b60008060408385031215610fce578182fd5b610fd783610e0f565b946020939093013593505050565b600060208284031215610ff6578081fd5b813561079981611621565b600060208284031215611012578081fd5b815161079981611621565b60006020828403121561102e578081fd5b5035919050565b6000815180845261104d816020860160208601611549565b601f01601f19169290920160200192915050565b60008351611073818460208801611549565b835190830190611087818360208801611549565b01949350505050565b6001600160a01b0391909116815260200190565b6001600160a01b03858116825284166020820152604081018390526080606082018190526000906110d790830184611035565b9695505050505050565b901515815260200190565b6000602082526107996020830184611035565b60208082526022908201527f455243373231413a206f776e657220696e646578206f7574206f6620626f756e604082015261647360f01b606082015260800190565b6020808252602a908201527f455243373231413a206f776e657220717565727920666f72206e6f6e657869736040820152693a32b73a103a37b5b2b760b11b606082015260800190565b60208082526025908201527f455243373231413a207472616e7366657220746f20746865207a65726f206164604082015264647265737360d81b606082015260800190565b60208082526039908201527f455243373231413a20617070726f76652063616c6c6572206973206e6f74206f60408201527f776e6572206e6f7220617070726f76656420666f7220616c6c00000000000000606082015260800190565b6020808252602b908201527f455243373231413a2062616c616e636520717565727920666f7220746865207a60408201526a65726f206164647265737360a81b606082015260800190565b60208082526026908201527f455243373231413a207472616e736665722066726f6d20696e636f72726563746040820152651037bbb732b960d11b606082015260800190565b6020808252602f908201527f4552433732314d657461646174613a2055524920717565727920666f72206e6f60408201526e3732bc34b9ba32b73a103a37b5b2b760891b606082015260800190565b6020808252601a908201527f455243373231413a20617070726f766520746f2063616c6c6572000000000000604082015260600190565b60208082526032908201527f455243373231413a207472616e736665722063616c6c6572206973206e6f74206040820152711bdddb995c881b9bdc88185c1c1c9bdd995960721b606082015260800190565b6020808252601a908201527f476c6f62616c20696e646578206f7574206f6620626f756e6473000000000000604082015260600190565b60208082526022908201527f455243373231413a20617070726f76616c20746f2063757272656e74206f776e60408201526132b960f11b606082015260800190565b60208082526033908201527f455243373231413a207472616e7366657220746f206e6f6e204552433732315260408201527232b1b2b4bb32b91034b6b83632b6b2b73a32b960691b606082015260800190565b6020808252602e908201527f455243373231413a20756e61626c6520746f2067657420746f6b656e206f662060408201526d0deeedccae440c4f240d2dcc8caf60931b606082015260800190565b6020808252602d908201527f455243373231413a20617070726f76656420717565727920666f72206e6f6e6560408201526c3c34b9ba32b73a103a37b5b2b760991b606082015260800190565b90815260200190565b60008219821115611519576115196115df565b500190565b60008261152d5761152d6115f5565b500490565b600082821015611544576115446115df565b500390565b60005b8381101561156457818101518382015260200161154c565b838111156107175750506000910152565b60028104600182168061158957607f821691505b602082108114156115aa57634e487b7160e01b600052602260045260246000fd5b50919050565b60006000198214156115c4576115c46115df565b5060010190565b6000826115da576115da6115f5565b500690565b634e487b7160e01b600052601160045260246000fd5b634e487b7160e01b600052601260045260246000fd5b634e487b7160e01b600052604160045260246000fd5b6001600160e01b03198116811461163757600080fd5b5056fea26469706673582212202fcabd94546818698cdb03b26504e3d33205dfbfa99c818b6f285ac9d0d3fb9f64736f6c63430008010033",
  "linkReferences": {},
  "deployedLinkReferences": {}
}