{
  "_format": "hh-sol-artifact-1",
  "contractName": "BearNFTS",
  "sourceName": "contracts/BearNFTS.sol",
  "abi": [
    {
      "inputs": [],
      "stateMutability": "nonpayable",
      "type": "constructor"
    },
    {
      "anonymous": false,
      "inputs": [
        {
          "indexed": true,
          "internalType": "address",
          "name": "owner",
          "type": "address"
        },
        {
          "indexed": true,
          "internalType": "address",
          "name": "approved",
          "type": "address"
        },
        {
          "indexed": true,
          "internalType": "uint256",
          "name": "tokenId",
          "type": "uint256"
        }
      ],
      "name": "Approval",
      "type": "event"
    },
    {
      "anonymous": false,
      "inputs": [
        {
          "indexed": true,
          "internalType": "address",
          "name": "owner",
          "type": "address"
        },
        {
          "indexed": true,
          "internalType": "address",
          "name": "operator",
          "type": "address"
        },
        {
          "indexed": false,
          "internalType": "bool",
          "name": "approved",
          "type": "bool"
        }
      ],
      "name": "ApprovalForAll",
      "type": "event"
    },
    {
      "anonymous": false,
      "inputs": [
        {
          "indexed": true,
          "internalType": "address",
          "name": "previousOwner",
          "type": "address"
        },
        {
          "indexed": true,
          "internalType": "address",
          "name": "newOwner",
          "type": "address"
        }
      ],
      "name": "OwnershipTransferred",
      "type": "event"
    },
    {
      "anonymous": false,
      "inputs": [
        {
          "indexed": true,
          "internalType": "address",
          "name": "from",
          "type": "address"
        },
        {
          "indexed": true,
          "internalType": "address",
          "name": "to",
          "type": "address"
        },
        {
          "indexed": true,
          "internalType": "uint256",
          "name": "tokenId",
          "type": "uint256"
        }
      ],
      "name": "Transfer",
      "type": "event"
    },
    {
      "inputs": [],
      "name": "BATCH_MINT_SIZE",
      "outputs": [
        {
          "internalType": "uint256",
          "name": "",
          "type": "uint256"
        }
      ],
      "stateMutability": "view",
      "type": "function"
    },
    {
      "inputs": [],
      "name": "TOTAL_SUPPLY",
      "outputs": [
        {
          "internalType": "uint256",
          "name": "",
          "type": "uint256"
        }
      ],
      "stateMutability": "view",
      "type": "function"
    },
    {
      "inputs": [
        {
          "internalType": "uint256[]",
          "name": "tokenIds",
          "type": "uint256[]"
        },
        {
          "internalType": "address[]",
          "name": "accounts",
          "type": "address[]"
        }
      ],
      "name": "addRewards",
      "outputs": [],
      "stateMutability": "nonpayable",
      "type": "function"
    },
    {
      "inputs": [
        {
          "internalType": "address",
          "name": "to",
          "type": "address"
        },
        {
          "internalType": "uint256",
          "name": "tokenId",
          "type": "uint256"
        }
      ],
      "name": "approve",
      "outputs": [],
      "stateMutability": "nonpayable",
      "type": "function"
    },
    {
      "inputs": [
        {
          "internalType": "address",
          "name": "owner",
          "type": "address"
        }
      ],
      "name": "balanceOf",
      "outputs": [
        {
          "internalType": "uint256",
          "name": "",
          "type": "uint256"
        }
      ],
      "stateMutability": "view",
      "type": "function"
    },
    {
      "inputs": [
        {
          "internalType": "bool",
          "name": "status",
          "type": "bool"
        }
      ],
      "name": "changeRestBears",
      "outputs": [],
      "stateMutability": "nonpayable",
      "type": "function"
    },
    {
      "inputs": [
        {
          "internalType": "uint256[]",
          "name": "rewardIndexes",
          "type": "uint256[]"
        }
      ],
      "name": "claimRewards",
      "outputs": [],
      "stateMutability": "nonpayable",
      "type": "function"
    },
    {
      "inputs": [
        {
          "internalType": "uint256",
          "name": "tokenId",
          "type": "uint256"
        }
      ],
      "name": "getApproved",
      "outputs": [
        {
          "internalType": "address",
          "name": "",
          "type": "address"
        }
      ],
      "stateMutability": "view",
      "type": "function"
    },
    {
      "inputs": [
        {
          "internalType": "address",
          "name": "owner",
          "type": "address"
        },
        {
          "internalType": "address",
          "name": "operator",
          "type": "address"
        }
      ],
      "name": "isApprovedForAll",
      "outputs": [
        {
          "internalType": "bool",
          "name": "",
          "type": "bool"
        }
      ],
      "stateMutability": "view",
      "type": "function"
    },
    {
      "inputs": [],
      "name": "name",
      "outputs": [
        {
          "internalType": "string",
          "name": "",
          "type": "string"
        }
      ],
      "stateMutability": "view",
      "type": "function"
    },
    {
      "inputs": [],
      "name": "owner",
      "outputs": [
        {
          "internalType": "address",
          "name": "",
          "type": "address"
        }
      ],
      "stateMutability": "view",
      "type": "function"
    },
    {
      "inputs": [
        {
          "internalType": "uint256",
          "name": "tokenId",
          "type": "uint256"
        }
      ],
      "name": "ownerOf",
      "outputs": [
        {
          "internalType": "address",
          "name": "",
          "type": "address"
        }
      ],
      "stateMutability": "view",
      "type": "function"
    },
    {
      "inputs": [],
      "name": "renounceOwnership",
      "outputs": [],
      "stateMutability": "nonpayable",
      "type": "function"
    },
    {
      "inputs": [],
      "name": "restBears",
      "outputs": [
        {
          "internalType": "bool",
          "name": "",
          "type": "bool"
        }
      ],
      "stateMutability": "view",
      "type": "function"
    },
    {
      "inputs": [
        {
          "internalType": "uint256",
          "name": "tokenId",
          "type": "uint256"
        }
      ],
      "name": "restingPeriod",
      "outputs": [
        {
          "internalType": "bool",
          "name": "resting",
          "type": "bool"
        },
        {
          "internalType": "uint256",
          "name": "current",
          "type": "uint256"
        },
        {
          "internalType": "uint256",
          "name": "total",
          "type": "uint256"
        }
      ],
      "stateMutability": "view",
      "type": "function"
    },
    {
      "inputs": [
        {
          "internalType": "address",
          "name": "owner",
          "type": "address"
        }
      ],
      "name": "rewardOf",
      "outputs": [
        {
          "internalType": "uint256",
          "name": "",
          "type": "uint256"
        }
      ],
      "stateMutability": "view",
      "type": "function"
    },
    {
      "inputs": [
        {
          "internalType": "address",
          "name": "from",
          "type": "address"
        },
        {
          "internalType": "address",
          "name": "to",
          "type": "address"
        },
        {
          "internalType": "uint256",
          "name": "tokenId",
          "type": "uint256"
        }
      ],
      "name": "safeTransferFrom",
      "outputs": [],
      "stateMutability": "nonpayable",
      "type": "function"
    },
    {
      "inputs": [
        {
          "internalType": "address",
          "name": "from",
          "type": "address"
        },
        {
          "internalType": "address",
          "name": "to",
          "type": "address"
        },
        {
          "internalType": "uint256",
          "name": "tokenId",
          "type": "uint256"
        },
        {
          "internalType": "bytes",
          "name": "_data",
          "type": "bytes"
        }
      ],
      "name": "safeTransferFrom",
      "outputs": [],
      "stateMutability": "nonpayable",
      "type": "function"
    },
    {
      "inputs": [
        {
          "internalType": "address",
          "name": "operator",
          "type": "address"
        },
        {
          "internalType": "bool",
          "name": "approved",
          "type": "bool"
        }
      ],
      "name": "setApprovalForAll",
      "outputs": [],
      "stateMutability": "nonpayable",
      "type": "function"
    },
    {
      "inputs": [
        {
          "internalType": "string",
          "name": "baseURI",
          "type": "string"
        }
      ],
      "name": "setBaseURI",
      "outputs": [],
      "stateMutability": "nonpayable",
      "type": "function"
    },
    {
      "inputs": [
        {
          "internalType": "bytes4",
          "name": "interfaceId",
          "type": "bytes4"
        }
      ],
      "name": "supportsInterface",
      "outputs": [
        {
          "internalType": "bool",
          "name": "",
          "type": "bool"
        }
      ],
      "stateMutability": "view",
      "type": "function"
    },
    {
      "inputs": [],
      "name": "symbol",
      "outputs": [
        {
          "internalType": "string",
          "name": "",
          "type": "string"
        }
      ],
      "stateMutability": "view",
      "type": "function"
    },
    {
      "inputs": [
        {
          "internalType": "uint256[]",
          "name": "tokenIds",
          "type": "uint256[]"
        }
      ],
      "name": "toggleResting",
      "outputs": [],
      "stateMutability": "nonpayable",
      "type": "function"
    },
    {
      "inputs": [
        {
          "internalType": "uint256",
          "name": "index",
          "type": "uint256"
        }
      ],
      "name": "tokenByIndex",
      "outputs": [
        {
          "internalType": "uint256",
          "name": "",
          "type": "uint256"
        }
      ],
      "stateMutability": "view",
      "type": "function"
    },
    {
      "inputs": [
        {
          "internalType": "address",
          "name": "owner",
          "type": "address"
        },
        {
          "internalType": "uint256",
          "name": "index",
          "type": "uint256"
        }
      ],
      "name": "tokenOfOwnerByIndex",
      "outputs": [
        {
          "internalType": "uint256",
          "name": "",
          "type": "uint256"
        }
      ],
      "stateMutability": "view",
      "type": "function"
    },
    {
      "inputs": [
        {
          "internalType": "address",
          "name": "owner",
          "type": "address"
        },
        {
          "internalType": "uint256",
          "name": "index",
          "type": "uint256"
        }
      ],
      "name": "tokenOfRewardByIndex",
      "outputs": [
        {
          "components": [
            {
              "internalType": "uint256",
              "name": "tokenId",
              "type": "uint256"
            },
            {
              "internalType": "bool",
              "name": "claimed",
              "type": "bool"
            }
          ],
          "internalType": "struct Reward",
          "name": "",
          "type": "tuple"
        }
      ],
      "stateMutability": "view",
      "type": "function"
    },
    {
      "inputs": [
        {
          "internalType": "uint256",
          "name": "tokenId",
          "type": "uint256"
        }
      ],
      "name": "tokenURI",
      "outputs": [
        {
          "internalType": "string",
          "name": "",
          "type": "string"
        }
      ],
      "stateMutability": "view",
      "type": "function"
    },
    {
      "inputs": [],
      "name": "totalSupply",
      "outputs": [
        {
          "internalType": "uint256",
          "name": "",
          "type": "uint256"
        }
      ],
      "stateMutability": "view",
      "type": "function"
    },
    {
      "inputs": [
        {
          "internalType": "address",
          "name": "from",
          "type": "address"
        },
        {
          "internalType": "address",
          "name": "to",
          "type": "address"
        },
        {
          "internalType": "uint256",
          "name": "tokenId",
          "type": "uint256"
        }
      ],
      "name": "transferFrom",
      "outputs": [],
      "stateMutability": "nonpayable",
      "type": "function"
    },
    {
      "inputs": [
        {
          "internalType": "address",
          "name": "newOwner",
          "type": "address"
        }
      ],
      "name": "transferOwnership",
      "outputs": [],
      "stateMutability": "nonpayable",
      "type": "function"
    }
  ],
  "bytecode": "0x60c06040526000600155600a805460ff191690553480156200002057600080fd5b5060405180604001604052806008815260200167426561724e46545360c01b81525060405180604001604052806008815260200167426561724e46545360c01b8152506014612710620000826200007c6200010f60201b60201c565b62000113565b60008111620000ae5760405162461bcd60e51b8152600401620000a59062000250565b60405180910390fd5b60008211620000d15760405162461bcd60e51b8152600401620000a59062000209565b8351620000e690600290602087019062000163565b508251620000fc90600390602086019062000163565b5060a09190915260805250620002db9050565b3390565b600080546001600160a01b038381166001600160a01b0319831681178455604051919092169283917f8be0079c531659141344cd1fd0a4f28419497f9722a3daafe3b4186f6b6457e09190a35050565b82805462000171906200029e565b90600052602060002090601f016020900481019282620001955760008555620001e0565b82601f10620001b057805160ff1916838001178555620001e0565b82800160010185558215620001e0579182015b82811115620001e0578251825591602001919060010190620001c3565b50620001ee929150620001f2565b5090565b5b80821115620001ee5760008155600101620001f3565b60208082526027908201527f455243373231413a206d61782062617463682073697a65206d757374206265206040820152666e6f6e7a65726f60c81b606082015260800190565b6020808252602e908201527f455243373231413a20636f6c6c656374696f6e206d757374206861766520612060408201526d6e6f6e7a65726f20737570706c7960901b606082015260800190565b600281046001821680620002b357607f821691505b60208210811415620002d557634e487b7160e01b600052602260045260246000fd5b50919050565b60805160a051612b136200030860003960008181611554015261157e0152600061067c0152612b136000f3fe608060405234801561001057600080fd5b50600436106101da5760003560e01c80636904b26e11610104578063a22cb465116100a2578063d01a01d511610071578063d01a01d5146103d0578063d8db6cea146103e3578063e985e9c5146103f6578063f2fde38b14610409576101da565b8063a22cb46514610377578063a654ae071461038a578063b88d4fde146103aa578063c87b56dd146103bd576101da565b806377a5c011116100de57806377a5c011146103575780638da5cb5b1461035f578063902d55a51461036757806395d89b411461036f576101da565b80636904b26e1461031a57806370a082311461033c578063715018a61461034f576101da565b80632f745c591161017c57806354de12b71161014b57806354de12b7146102ce57806355f804b3146102e15780635eac6239146102f45780636352211e14610307576101da565b80632f745c591461028d578063323ed6dd146102a057806342842e0e146102a85780634f6ccce7146102bb576101da565b8063095ea7b3116101b8578063095ea7b31461023d57806318160ddd146102525780631d62ebd91461026757806323b872dd1461027a576101da565b806301ffc9a7146101df57806306fdde0314610208578063081812fc1461021d575b600080fd5b6101f26101ed3660046120c0565b61041c565b6040516101ff9190612216565b60405180910390f35b61021061047f565b6040516101ff9190612239565b61023061022b366004612152565b610511565b6040516101ff91906121c5565b61025061024b366004611f1e565b61055d565b005b61025a6105f6565b6040516101ff9190612939565b61025a610275366004611db7565b6105fc565b610250610288366004611e03565b610640565b61025a61029b366004611f1e565b61064b565b6101f261075c565b6102506102b6366004611e03565b610765565b61025a6102c9366004612152565b610780565b6102506102dc3660046120a6565b6107ac565b6102506102ef3660046120f8565b6107fe565b610250610302366004611fb5565b610849565b610230610315366004612152565b610a80565b61032d610328366004612152565b610a92565b6040516101ff93929190612221565b61025a61034a366004611db7565b610ade565b610250610b22565b61025a610b6d565b610230610b72565b61025a610b81565b610210610b87565b610250610385366004611ef5565b610b96565b61039d610398366004611f1e565b610c64565b6040516101ff9190612920565b6102506103b8366004611e3e565b610cd7565b6102106103cb366004612152565b610d10565b6102506103de366004611fe7565b610d93565b6102506103f1366004611f47565b6110b8565b6101f2610404366004611dd1565b611103565b610250610417366004611db7565b611131565b60006001600160e01b031982166380ac58cd60e01b148061044d57506001600160e01b03198216635b5e139f60e01b145b8061046857506001600160e01b0319821663780e9d6360e01b145b806104775750610477826111a2565b90505b919050565b60606002805461048e90612a1b565b80601f01602080910402602001604051908101604052809291908181526020018280546104ba90612a1b565b80156105075780601f106104dc57610100808354040283529160200191610507565b820191906000526020600020905b8154815290600101906020018083116104ea57829003601f168201915b5050505050905090565b600061051c826111bb565b6105415760405162461bcd60e51b8152600401610538906128a3565b60405180910390fd5b506000908152600660205260409020546001600160a01b031690565b600061056882610a80565b9050806001600160a01b0316836001600160a01b0316141561059c5760405162461bcd60e51b815260040161053890612709565b806001600160a01b03166105ae6111d8565b6001600160a01b031614806105ca57506105ca816104046111d8565b6105e65760405162461bcd60e51b8152600401610538906124d7565b6105f18383836111dc565b505050565b60015490565b60006001600160a01b0382166106245760405162461bcd60e51b81526004016105389061231e565b506001600160a01b03166000908152600e602052604090205490565b6105f1838383611238565b600061065683610ade565b82106106745760405162461bcd60e51b81526004016105389061224c565b60008060005b7f0000000000000000000000000000000000000000000000000000000000000000811161073d576000818152600460209081526040918290208251808401909352546001600160a01b038116808452600160a01b9091046001600160401b031691830191909152156106eb57805192505b866001600160a01b0316836001600160a01b0316141561072a578584141561071857509250610756915050565b8361072281612a56565b945050600092505b508061073581612a56565b91505061067a565b5060405162461bcd60e51b815260040161053890612806565b92915050565b600a5460ff1681565b6105f183838360405180602001604052806000815250610cd7565b600061078a6105f6565b82106107a85760405162461bcd60e51b8152600401610538906123c7565b5090565b6107b46111d8565b6001600160a01b03166107c5610b72565b6001600160a01b0316146107eb5760405162461bcd60e51b8152600401610538906125c5565b600a805460ff1916911515919091179055565b6108066111d8565b6001600160a01b0316610817610b72565b6001600160a01b03161461083d5760405162461bcd60e51b8152600401610538906125c5565b6105f160088383611c78565b6000610854336105fc565b9050600082516001600160401b0381111561087f57634e487b7160e01b600052604160045260246000fd5b6040519080825280602002602001820160405280156108a8578160200160208202803683370190505b50905060005b8351811015610a7557336000908152600d6020526040812085519091908690849081106108eb57634e487b7160e01b600052603260045260246000fd5b60209081029190910181015182528101919091526040016000206001015460ff16156109295760405162461bcd60e51b81526004016105389061244f565b8284828151811061094a57634e487b7160e01b600052603260045260246000fd5b60200260200101511061096f5760405162461bcd60e51b815260040161053890612369565b336000908152600d6020526040812085519091908690849081106109a357634e487b7160e01b600052603260045260246000fd5b60200260200101518152602001908152602001600020600001548282815181106109dd57634e487b7160e01b600052603260045260246000fd5b6020026020010181815250506001600d6000336001600160a01b03166001600160a01b031681526020019081526020016000206000868481518110610a3257634e487b7160e01b600052603260045260246000fd5b6020026020010151815260200190815260200160002060010160006101000a81548160ff0219169083151502179055508080610a6d90612a56565b9150506108ae565b506105f13382611505565b6000610a8b82611523565b5192915050565b600081815260096020526040812054819081908015610abc5760019350610ab981426129c1565b92505b6000858152600b6020526040902054610ad59084612995565b93959294505050565b60006001600160a01b038216610b065760405162461bcd60e51b815260040161053890612534565b506001600160a01b031660009081526005602052604090205490565b610b2a6111d8565b6001600160a01b0316610b3b610b72565b6001600160a01b031614610b615760405162461bcd60e51b8152600401610538906125c5565b610b6b6000611635565b565b601481565b6000546001600160a01b031690565b61271081565b60606003805461048e90612a1b565b610b9e6111d8565b6001600160a01b0316826001600160a01b03161415610bcf5760405162461bcd60e51b815260040161053890612649565b8060076000610bdc6111d8565b6001600160a01b03908116825260208083019390935260409182016000908120918716808252919093529120805460ff191692151592909217909155610c206111d8565b6001600160a01b03167f17307eab39ab6107e8899845ad3d59bd9653f200f220920489ca2b5937696c3183604051610c589190612216565b60405180910390a35050565b610c6c611cf8565b610c75836105fc565b8210610c935760405162461bcd60e51b8152600401610538906126d2565b506001600160a01b0382166000908152600d602090815260408083208484528252918290208251808401909352805483526001015460ff1615159082015292915050565b610ce2848484611238565b610cee84848484611685565b610d0a5760405162461bcd60e51b815260040161053890612772565b50505050565b6060610d1b826111bb565b610d375760405162461bcd60e51b8152600401610538906125fa565b6000610d416117a1565b90506000815111610d615760405180602001604052806000815250610d8c565b80610d6b846117b0565b604051602001610d7c929190612196565b6040516020818303038152906040525b9392505050565b610d9b6111d8565b6001600160a01b0316610dac610b72565b6001600160a01b031614610dd25760405162461bcd60e51b8152600401610538906125c5565b60005b82518110156105f157610e0e838281518110610e0157634e487b7160e01b600052603260045260246000fd5b60200260200101516118ca565b15610e2b5760405162461bcd60e51b8152600401610538906128f0565b828181518110610e4b57634e487b7160e01b600052603260045260246000fd5b6020026020010151600014158015610e8c5750612710838281518110610e8157634e487b7160e01b600052603260045260246000fd5b602002602001015111155b610ea85760405162461bcd60e51b8152600401610538906124ad565b6040518060400160405280838381518110610ed357634e487b7160e01b600052603260045260246000fd5b60200260200101516001600160a01b03168152602001426001600160401b0316815250600c6000858481518110610f1a57634e487b7160e01b600052603260045260246000fd5b60209081029190910181015182528181019290925260400160009081208351815494909301516001600160401b0316600160a01b0267ffffffffffffffff60a01b196001600160a01b039094166001600160a01b031990951694909417929092169290921790558251610fb490849084908110610fa757634e487b7160e01b600052603260045260246000fd5b60200260200101516105fc565b9050838281518110610fd657634e487b7160e01b600052603260045260246000fd5b6020026020010151600d600085858151811061100257634e487b7160e01b600052603260045260246000fd5b60200260200101516001600160a01b03166001600160a01b03168152602001908152602001600020600083815260200190815260200160002060000181905550600e600084848151811061106657634e487b7160e01b600052603260045260246000fd5b60200260200101516001600160a01b03166001600160a01b03168152602001908152602001600020600081548092919061109f90612a56565b91905055505080806110b090612a56565b915050610dd5565b8060005b81811015610d0a576110f38484838181106110e757634e487b7160e01b600052603260045260246000fd5b905060200201356118e7565b6110fc81612a56565b90506110bc565b6001600160a01b03918216600090815260076020908152604080832093909416825291909152205460ff1690565b6111396111d8565b6001600160a01b031661114a610b72565b6001600160a01b0316146111705760405162461bcd60e51b8152600401610538906125c5565b6001600160a01b0381166111965760405162461bcd60e51b81526004016105389061228e565b61119f81611635565b50565b6001600160e01b031981166301ffc9a760e01b14919050565b6000908152600460205260409020546001600160a01b0316151590565b3390565b60008281526006602052604080822080546001600160a01b0319166001600160a01b0387811691821790925591518593918516917f8c5be1e5ebec7d5bd14f71427d1e84f3dd0314c0f7b2291e5b200ac8c7c3b92591a4505050565b600061124382611523565b9050600081600001516001600160a01b031661125d6111d8565b6001600160a01b0316148061129257506112756111d8565b6001600160a01b031661128784610511565b6001600160a01b0316145b806112a6575081516112a6906104046111d8565b9050806112c55760405162461bcd60e51b815260040161053890612680565b846001600160a01b031682600001516001600160a01b0316146112fa5760405162461bcd60e51b81526004016105389061257f565b6001600160a01b0384166113205760405162461bcd60e51b81526004016105389061240a565b61132d85858560016119b3565b61133d60008484600001516111dc565b6001600160a01b03851660009081526005602052604081208054600192906113669084906129c1565b90915550506001600160a01b0384166000908152600560205260408120805460019290611394908490612995565b90915550506040805180820182526001600160a01b0380871682526001600160401b03428116602080850191825260008981526004909152948520935184549151909216600160a01b0267ffffffffffffffff60a01b19929093166001600160a01b0319909116171617905561140b846001612995565b6000818152600460205260409020549091506001600160a01b03166114af57611433816111bb565b156114af5760408051808201825284516001600160a01b0390811682526020808701516001600160401b0390811682850190815260008781526004909352949091209251835494516001600160a01b031990951692169190911767ffffffffffffffff60a01b1916600160a01b93909116929092029190911790555b83856001600160a01b0316876001600160a01b03167fddf252ad1be2c89b69c2b068fc378daa952ba7f163c4a11628f55a4df523b3ef60405160405180910390a46114fd8686866001610d0a565b505050505050565b61151f828260405180602001604052806000815250611a07565b5050565b61152b611cf8565b611534826111bb565b6115505760405162461bcd60e51b8152600401610538906122d4565b60007f000000000000000000000000000000000000000000000000000000000000000083106115b1576115a37f0000000000000000000000000000000000000000000000000000000000000000846129c1565b6115ae906001612995565b90505b825b81811061161c576000818152600460209081526040918290208251808401909352546001600160a01b038116808452600160a01b9091046001600160401b0316918301919091521561160957925061047a915050565b508061161481612a04565b9150506115b3565b5060405162461bcd60e51b815260040161053890612854565b600080546001600160a01b038381166001600160a01b0319831681178455604051919092169283917f8be0079c531659141344cd1fd0a4f28419497f9722a3daafe3b4186f6b6457e09190a35050565b6000611699846001600160a01b0316611c69565b1561179557836001600160a01b031663150b7a026116b56111d8565b8786866040518563ffffffff1660e01b81526004016116d794939291906121d9565b602060405180830381600087803b1580156116f157600080fd5b505af1925050508015611721575060408051601f3d908101601f1916820190925261171e918101906120dc565b60015b61177b573d80801561174f576040519150601f19603f3d011682016040523d82523d6000602084013e611754565b606091505b5080516117735760405162461bcd60e51b815260040161053890612772565b805181602001fd5b6001600160e01b031916630a85bd0160e11b149050611799565b5060015b949350505050565b60606008805461048e90612a1b565b6060816117d557506040805180820190915260018152600360fc1b602082015261047a565b8160005b81156117ff57806117e981612a56565b91506117f89050600a836129ad565b91506117d9565b6000816001600160401b0381111561182757634e487b7160e01b600052604160045260246000fd5b6040519080825280601f01601f191660200182016040528015611851576020820181803683370190505b5090505b8415611799576118666001836129c1565b9150611873600a86612a71565b61187e906030612995565b60f81b8183815181106118a157634e487b7160e01b600052603260045260246000fd5b60200101906001600160f81b031916908160001a9053506118c3600a866129ad565b9450611855565b6000908152600c60205260409020546001600160a01b0316151590565b6118ef6111d8565b6001600160a01b031661190182611523565b516001600160a01b0316146119285760405162461bcd60e51b815260040161053890612390565b6000818152600960205260409020548061197457600a5460ff1661195e5760405162461bcd60e51b81526004016105389061247f565b600082815260096020526040902042905561151f565b61197e81426129c1565b6000838152600b60205260408120805490919061199c908490612995565b909155505050600090815260096020526040812055565b8160006119c08383612995565b90505b808210156114fd57600082815260096020526040902054156119f75760405162461bcd60e51b81526004016105389061274b565b611a0082612a56565b91506119c3565b815160016000828254611a1a9190612995565b90915550506001600160a01b038316611a455760405162461bcd60e51b8152600401610538906127c5565b611a7b60008484600081518110611a6c57634e487b7160e01b600052603260045260246000fd5b602002602001015185516119b3565b81516001600160a01b03841660009081526005602052604081208054909190611aa5908490612995565b90915550600090505b8251811015611c3257828181518110611ad757634e487b7160e01b600052603260045260246000fd5b6020026020010151846001600160a01b031660006001600160a01b03167fddf252ad1be2c89b69c2b068fc378daa952ba7f163c4a11628f55a4df523b3ef60405160405180910390a4611b54600085858481518110611b4657634e487b7160e01b600052603260045260246000fd5b602002602001015185611685565b611b705760405162461bcd60e51b815260040161053890612772565b6040518060400160405280856001600160a01b03168152602001426001600160401b031681525060046000858481518110611bbb57634e487b7160e01b600052603260045260246000fd5b6020908102919091018101518252818101929092526040016000208251815493909201516001600160401b0316600160a01b0267ffffffffffffffff60a01b196001600160a01b039093166001600160a01b0319909416939093179190911691909117905580611c2a81612a56565b915050611aae565b506105f160008484600081518110611c5a57634e487b7160e01b600052603260045260246000fd5b60200260200101518551610d0a565b6001600160a01b03163b151590565b828054611c8490612a1b565b90600052602060002090601f016020900481019282611ca65760008555611cec565b82601f10611cbf5782800160ff19823516178555611cec565b82800160010185558215611cec579182015b82811115611cec578235825591602001919060010190611cd1565b506107a8929150611d0f565b604080518082019091526000808252602082015290565b5b808211156107a85760008155600101611d10565b80356001600160a01b038116811461047a57600080fd5b600082601f830112611d4b578081fd5b81356020611d60611d5b83612972565b612942565b8281528181019085830183850287018401881015611d7c578586fd5b855b85811015611d9a57813584529284019290840190600101611d7e565b5090979650505050505050565b8035801515811461047a57600080fd5b600060208284031215611dc8578081fd5b610d8c82611d24565b60008060408385031215611de3578081fd5b611dec83611d24565b9150611dfa60208401611d24565b90509250929050565b600080600060608486031215611e17578081fd5b611e2084611d24565b9250611e2e60208501611d24565b9150604084013590509250925092565b60008060008060808587031215611e53578081fd5b611e5c85611d24565b93506020611e6b818701611d24565b93506040860135925060608601356001600160401b0380821115611e8d578384fd5b818801915088601f830112611ea0578384fd5b813581811115611eb257611eb2612ab1565b611ec4601f8201601f19168501612942565b91508082528984828501011115611ed9578485fd5b8084840185840137810190920192909252939692955090935050565b60008060408385031215611f07578182fd5b611f1083611d24565b9150611dfa60208401611da7565b60008060408385031215611f30578182fd5b611f3983611d24565b946020939093013593505050565b60008060208385031215611f59578182fd5b82356001600160401b0380821115611f6f578384fd5b818501915085601f830112611f82578384fd5b813581811115611f90578485fd5b8660208083028501011115611fa3578485fd5b60209290920196919550909350505050565b600060208284031215611fc6578081fd5b81356001600160401b03811115611fdb578182fd5b61179984828501611d3b565b60008060408385031215611ff9578182fd5b82356001600160401b038082111561200f578384fd5b61201b86838701611d3b565b9350602091508185013581811115612031578384fd5b85019050601f81018613612043578283fd5b8035612051611d5b82612972565b81815283810190838501858402850186018a101561206d578687fd5b8694505b838510156120965761208281611d24565b835260019490940193918501918501612071565b5080955050505050509250929050565b6000602082840312156120b7578081fd5b610d8c82611da7565b6000602082840312156120d1578081fd5b8135610d8c81612ac7565b6000602082840312156120ed578081fd5b8151610d8c81612ac7565b6000806020838503121561210a578182fd5b82356001600160401b0380821115612120578384fd5b818501915085601f830112612133578384fd5b813581811115612141578485fd5b866020828501011115611fa3578485fd5b600060208284031215612163578081fd5b5035919050565b600081518084526121828160208601602086016129d8565b601f01601f19169290920160200192915050565b600083516121a88184602088016129d8565b8351908301906121bc8183602088016129d8565b01949350505050565b6001600160a01b0391909116815260200190565b6001600160a01b038581168252841660208201526040810183905260806060820181905260009061220c9083018461216a565b9695505050505050565b901515815260200190565b92151583526020830191909152604082015260600190565b600060208252610d8c602083018461216a565b60208082526022908201527f455243373231413a206f776e657220696e646578206f7574206f6620626f756e604082015261647360f01b606082015260800190565b60208082526026908201527f4f776e61626c653a206e6577206f776e657220697320746865207a65726f206160408201526564647265737360d01b606082015260800190565b6020808252602a908201527f455243373231413a206f776e657220717565727920666f72206e6f6e657869736040820152693a32b73a103a37b5b2b760b11b606082015260800190565b6020808252602b908201527f426561724e4654533a2061646472657373207a65726f206973206e6f7420612060408201526a3b30b634b21037bbb732b960a91b606082015260800190565b6020808252600d908201526c092dcecc2d8d2c840d2dcc8caf609b1b604082015260600190565b60208082526018908201527f45524337323141436f6d6d6f6e3a204e6f74206f776e65720000000000000000604082015260600190565b60208082526023908201527f455243373231413a20676c6f62616c20696e646578206f7574206f6620626f756040820152626e647360e81b606082015260800190565b60208082526025908201527f455243373231413a207472616e7366657220746f20746865207a65726f206164604082015264647265737360d81b606082015260800190565b602080825260169082015275105b1c9958591e4810db185a5b59590814995dd85c9960521b604082015260600190565b6020808252601490820152731099585c8e881c995cdd1a5b99c818db1bdcd95960621b604082015260600190565b60208082526010908201526f125b9d985b1a5908151bdad95b88125960821b604082015260600190565b60208082526039908201527f455243373231413a20617070726f76652063616c6c6572206973206e6f74206f60408201527f776e6572206e6f7220617070726f76656420666f7220616c6c00000000000000606082015260800190565b6020808252602b908201527f455243373231413a2062616c616e636520717565727920666f7220746865207a60408201526a65726f206164647265737360a81b606082015260800190565b60208082526026908201527f455243373231413a207472616e736665722066726f6d20696e636f72726563746040820152651037bbb732b960d11b606082015260800190565b6020808252818101527f4f776e61626c653a2063616c6c6572206973206e6f7420746865206f776e6572604082015260600190565b6020808252602f908201527f4552433732314d657461646174613a2055524920717565727920666f72206e6f60408201526e3732bc34b9ba32b73a103a37b5b2b760891b606082015260800190565b6020808252601a908201527f455243373231413a20617070726f766520746f2063616c6c6572000000000000604082015260600190565b60208082526032908201527f455243373231413a207472616e736665722063616c6c6572206973206e6f74206040820152711bdddb995c881b9bdc88185c1c1c9bdd995960721b606082015260800190565b60208082526019908201527f6f776e657220696e646578206f7574206f6620626f756e647300000000000000604082015260600190565b60208082526022908201527f455243373231413a20617070726f76616c20746f2063757272656e74206f776e60408201526132b960f11b606082015260800190565b6020808252600d908201526c426561723a2072657374696e6760981b604082015260600190565b60208082526033908201527f455243373231413a207472616e7366657220746f206e6f6e204552433732315260408201527232b1b2b4bb32b91034b6b83632b6b2b73a32b960691b606082015260800190565b60208082526021908201527f455243373231413a206d696e7420746f20746865207a65726f206164647265736040820152607360f81b606082015260800190565b6020808252602e908201527f455243373231413a20756e61626c6520746f2067657420746f6b656e206f662060408201526d0deeedccae440c4f240d2dcc8caf60931b606082015260800190565b6020808252602f908201527f455243373231413a20756e61626c6520746f2064657465726d696e652074686560408201526e1037bbb732b91037b3103a37b5b2b760891b606082015260800190565b6020808252602d908201527f455243373231413a20617070726f76656420717565727920666f72206e6f6e6560408201526c3c34b9ba32b73a103a37b5b2b760991b606082015260800190565b602080825260169082015275151bdad95b88105b1c9958591e4814995dd85c99195960521b604082015260600190565b8151815260209182015115159181019190915260400190565b90815260200190565b604051601f8201601f191681016001600160401b038111828210171561296a5761296a612ab1565b604052919050565b60006001600160401b0382111561298b5761298b612ab1565b5060209081020190565b600082198211156129a8576129a8612a85565b500190565b6000826129bc576129bc612a9b565b500490565b6000828210156129d3576129d3612a85565b500390565b60005b838110156129f35781810151838201526020016129db565b83811115610d0a5750506000910152565b600081612a1357612a13612a85565b506000190190565b600281046001821680612a2f57607f821691505b60208210811415612a5057634e487b7160e01b600052602260045260246000fd5b50919050565b6000600019821415612a6a57612a6a612a85565b5060010190565b600082612a8057612a80612a9b565b500690565b634e487b7160e01b600052601160045260246000fd5b634e487b7160e01b600052601260045260246000fd5b634e487b7160e01b600052604160045260246000fd5b6001600160e01b03198116811461119f57600080fdfea2646970667358221220762a35d490dd71f379546f6dcba4ad423c1f2b33a2d8348133a0b1abf662d39364736f6c63430008010033",
  "linkReferences": {},
  "deployedLinkReferences": {}
}