{
  "_format": "hh-sol-artifact-1",
  "contractName": "BearNFTS",
  "sourceName": "contracts/BearNFTS.sol",
  "abi": [
    {
      "inputs": [],
      "stateMutability": "nonpayable",
      "type": "constructor"
    },
    {
      "anonymous": false,
      "inputs": [
        {
          "indexed": true,
          "internalType": "address",
          "name": "owner",
          "type": "address"
        },
        {
          "indexed": true,
          "internalType": "address",
          "name": "approved",
          "type": "address"
        },
        {
          "indexed": true,
          "internalType": "uint256",
          "name": "tokenId",
          "type": "uint256"
        }
      ],
      "name": "Approval",
      "type": "event"
    },
    {
      "anonymous": false,
      "inputs": [
        {
          "indexed": true,
          "internalType": "address",
          "name": "owner",
          "type": "address"
        },
        {
          "indexed": true,
          "internalType": "address",
          "name": "operator",
          "type": "address"
        },
        {
          "indexed": false,
          "internalType": "bool",
          "name": "approved",
          "type": "bool"
        }
      ],
      "name": "ApprovalForAll",
      "type": "event"
    },
    {
      "anonymous": false,
      "inputs": [
        {
          "indexed": true,
          "internalType": "address",
          "name": "previousOwner",
          "type": "address"
        },
        {
          "indexed": true,
          "internalType": "address",
          "name": "newOwner",
          "type": "address"
        }
      ],
      "name": "OwnershipTransferred",
      "type": "event"
    },
    {
      "anonymous": false,
      "inputs": [
        {
          "indexed": true,
          "internalType": "address",
          "name": "from",
          "type": "address"
        },
        {
          "indexed": true,
          "internalType": "address",
          "name": "to",
          "type": "address"
        },
        {
          "indexed": true,
          "internalType": "uint256",
          "name": "tokenId",
          "type": "uint256"
        }
      ],
      "name": "Transfer",
      "type": "event"
    },
    {
      "inputs": [],
      "name": "COLLECTION_SIZE",
      "outputs": [
        {
          "internalType": "uint256",
          "name": "",
          "type": "uint256"
        }
      ],
      "stateMutability": "view",
      "type": "function"
    },
    {
      "inputs": [
        {
          "internalType": "uint256[]",
          "name": "tokenIds",
          "type": "uint256[]"
        },
        {
          "internalType": "address[]",
          "name": "accounts",
          "type": "address[]"
        }
      ],
      "name": "addWhitelist",
      "outputs": [],
      "stateMutability": "nonpayable",
      "type": "function"
    },
    {
      "inputs": [
        {
          "internalType": "address",
          "name": "to",
          "type": "address"
        },
        {
          "internalType": "uint256",
          "name": "tokenId",
          "type": "uint256"
        }
      ],
      "name": "approve",
      "outputs": [],
      "stateMutability": "nonpayable",
      "type": "function"
    },
    {
      "inputs": [
        {
          "internalType": "address",
          "name": "owner",
          "type": "address"
        }
      ],
      "name": "balanceOf",
      "outputs": [
        {
          "internalType": "uint256",
          "name": "",
          "type": "uint256"
        }
      ],
      "stateMutability": "view",
      "type": "function"
    },
    {
      "inputs": [
        {
          "internalType": "bool",
          "name": "status",
          "type": "bool"
        }
      ],
      "name": "changeHibernationStatus",
      "outputs": [],
      "stateMutability": "nonpayable",
      "type": "function"
    },
    {
      "inputs": [
        {
          "internalType": "uint256[]",
          "name": "rewardIndexes",
          "type": "uint256[]"
        }
      ],
      "name": "claimBears",
      "outputs": [],
      "stateMutability": "nonpayable",
      "type": "function"
    },
    {
      "inputs": [
        {
          "internalType": "uint256",
          "name": "tokenId",
          "type": "uint256"
        }
      ],
      "name": "getApproved",
      "outputs": [
        {
          "internalType": "address",
          "name": "",
          "type": "address"
        }
      ],
      "stateMutability": "view",
      "type": "function"
    },
    {
      "inputs": [
        {
          "internalType": "uint256",
          "name": "tokenId",
          "type": "uint256"
        }
      ],
      "name": "hibernationPeriod",
      "outputs": [
        {
          "internalType": "bool",
          "name": "resting",
          "type": "bool"
        },
        {
          "internalType": "uint256",
          "name": "current",
          "type": "uint256"
        },
        {
          "internalType": "uint256",
          "name": "total",
          "type": "uint256"
        }
      ],
      "stateMutability": "view",
      "type": "function"
    },
    {
      "inputs": [],
      "name": "hibernationStatus",
      "outputs": [
        {
          "internalType": "bool",
          "name": "",
          "type": "bool"
        }
      ],
      "stateMutability": "view",
      "type": "function"
    },
    {
      "inputs": [
        {
          "internalType": "address",
          "name": "owner",
          "type": "address"
        },
        {
          "internalType": "address",
          "name": "operator",
          "type": "address"
        }
      ],
      "name": "isApprovedForAll",
      "outputs": [
        {
          "internalType": "bool",
          "name": "",
          "type": "bool"
        }
      ],
      "stateMutability": "view",
      "type": "function"
    },
    {
      "inputs": [],
      "name": "name",
      "outputs": [
        {
          "internalType": "string",
          "name": "",
          "type": "string"
        }
      ],
      "stateMutability": "view",
      "type": "function"
    },
    {
      "inputs": [],
      "name": "owner",
      "outputs": [
        {
          "internalType": "address",
          "name": "",
          "type": "address"
        }
      ],
      "stateMutability": "view",
      "type": "function"
    },
    {
      "inputs": [
        {
          "internalType": "uint256",
          "name": "tokenId",
          "type": "uint256"
        }
      ],
      "name": "ownerOf",
      "outputs": [
        {
          "internalType": "address",
          "name": "",
          "type": "address"
        }
      ],
      "stateMutability": "view",
      "type": "function"
    },
    {
      "inputs": [],
      "name": "renounceOwnership",
      "outputs": [],
      "stateMutability": "nonpayable",
      "type": "function"
    },
    {
      "inputs": [
        {
          "internalType": "address",
          "name": "owner",
          "type": "address"
        }
      ],
      "name": "rewardOf",
      "outputs": [
        {
          "internalType": "uint256",
          "name": "",
          "type": "uint256"
        }
      ],
      "stateMutability": "view",
      "type": "function"
    },
    {
      "inputs": [
        {
          "internalType": "address",
          "name": "from",
          "type": "address"
        },
        {
          "internalType": "address",
          "name": "to",
          "type": "address"
        },
        {
          "internalType": "uint256",
          "name": "tokenId",
          "type": "uint256"
        }
      ],
      "name": "safeTransferFrom",
      "outputs": [],
      "stateMutability": "nonpayable",
      "type": "function"
    },
    {
      "inputs": [
        {
          "internalType": "address",
          "name": "from",
          "type": "address"
        },
        {
          "internalType": "address",
          "name": "to",
          "type": "address"
        },
        {
          "internalType": "uint256",
          "name": "tokenId",
          "type": "uint256"
        },
        {
          "internalType": "bytes",
          "name": "_data",
          "type": "bytes"
        }
      ],
      "name": "safeTransferFrom",
      "outputs": [],
      "stateMutability": "nonpayable",
      "type": "function"
    },
    {
      "inputs": [
        {
          "internalType": "address",
          "name": "operator",
          "type": "address"
        },
        {
          "internalType": "bool",
          "name": "approved",
          "type": "bool"
        }
      ],
      "name": "setApprovalForAll",
      "outputs": [],
      "stateMutability": "nonpayable",
      "type": "function"
    },
    {
      "inputs": [
        {
          "internalType": "string",
          "name": "baseURI",
          "type": "string"
        }
      ],
      "name": "setBaseURI",
      "outputs": [],
      "stateMutability": "nonpayable",
      "type": "function"
    },
    {
      "inputs": [
        {
          "internalType": "bytes4",
          "name": "interfaceId",
          "type": "bytes4"
        }
      ],
      "name": "supportsInterface",
      "outputs": [
        {
          "internalType": "bool",
          "name": "",
          "type": "bool"
        }
      ],
      "stateMutability": "view",
      "type": "function"
    },
    {
      "inputs": [],
      "name": "symbol",
      "outputs": [
        {
          "internalType": "string",
          "name": "",
          "type": "string"
        }
      ],
      "stateMutability": "view",
      "type": "function"
    },
    {
      "inputs": [
        {
          "internalType": "uint256[]",
          "name": "tokenIds",
          "type": "uint256[]"
        }
      ],
      "name": "toggleHibernation",
      "outputs": [],
      "stateMutability": "nonpayable",
      "type": "function"
    },
    {
      "inputs": [
        {
          "internalType": "uint256",
          "name": "index",
          "type": "uint256"
        }
      ],
      "name": "tokenByIndex",
      "outputs": [
        {
          "internalType": "uint256",
          "name": "",
          "type": "uint256"
        }
      ],
      "stateMutability": "view",
      "type": "function"
    },
    {
      "inputs": [
        {
          "internalType": "address",
          "name": "owner",
          "type": "address"
        },
        {
          "internalType": "uint256",
          "name": "index",
          "type": "uint256"
        }
      ],
      "name": "tokenOfOwnerByIndex",
      "outputs": [
        {
          "internalType": "uint256",
          "name": "",
          "type": "uint256"
        }
      ],
      "stateMutability": "view",
      "type": "function"
    },
    {
      "inputs": [
        {
          "internalType": "address",
          "name": "owner",
          "type": "address"
        },
        {
          "internalType": "uint256",
          "name": "index",
          "type": "uint256"
        }
      ],
      "name": "tokenOfRewardByIndex",
      "outputs": [
        {
          "components": [
            {
              "internalType": "uint256",
              "name": "tokenId",
              "type": "uint256"
            },
            {
              "internalType": "bool",
              "name": "claimed",
              "type": "bool"
            }
          ],
          "internalType": "struct Reward",
          "name": "",
          "type": "tuple"
        }
      ],
      "stateMutability": "view",
      "type": "function"
    },
    {
      "inputs": [
        {
          "internalType": "uint256",
          "name": "tokenId",
          "type": "uint256"
        }
      ],
      "name": "tokenURI",
      "outputs": [
        {
          "internalType": "string",
          "name": "",
          "type": "string"
        }
      ],
      "stateMutability": "view",
      "type": "function"
    },
    {
      "inputs": [],
      "name": "totalSupply",
      "outputs": [
        {
          "internalType": "uint256",
          "name": "",
          "type": "uint256"
        }
      ],
      "stateMutability": "view",
      "type": "function"
    },
    {
      "inputs": [
        {
          "internalType": "address",
          "name": "from",
          "type": "address"
        },
        {
          "internalType": "address",
          "name": "to",
          "type": "address"
        },
        {
          "internalType": "uint256",
          "name": "tokenId",
          "type": "uint256"
        }
      ],
      "name": "transferFrom",
      "outputs": [],
      "stateMutability": "nonpayable",
      "type": "function"
    },
    {
      "inputs": [
        {
          "internalType": "address",
          "name": "newOwner",
          "type": "address"
        }
      ],
      "name": "transferOwnership",
      "outputs": [],
      "stateMutability": "nonpayable",
      "type": "function"
    }
  ],
  "bytecode": "0x60a06040526000600155600a805460ff191690553480156200002057600080fd5b506040518060400160405280600a8152602001692130b93132b0b934b0b760b11b815250604051806040016040528060048152602001632122a0a960e11b8152506127106200007e62000078620000e260201b60201c565b620000e6565b60008111620000aa5760405162461bcd60e51b8152600401620000a190620001dc565b60405180910390fd5b8251620000bf90600290602086019062000136565b508151620000d590600390602085019062000136565b5060805250620002679050565b3390565b600080546001600160a01b038381166001600160a01b0319831681178455604051919092169283917f8be0079c531659141344cd1fd0a4f28419497f9722a3daafe3b4186f6b6457e09190a35050565b82805462000144906200022a565b90600052602060002090601f016020900481019282620001685760008555620001b3565b82601f106200018357805160ff1916838001178555620001b3565b82800160010185558215620001b3579182015b82811115620001b357825182559160200191906001019062000196565b50620001c1929150620001c5565b5090565b5b80821115620001c15760008155600101620001c6565b6020808252602e908201527f455243373231413a20636f6c6c656374696f6e206d757374206861766520612060408201526d6e6f6e7a65726f20737570706c7960901b606082015260800190565b6002810460018216806200023f57607f821691505b602082108114156200026157634e487b7160e01b600052602260045260246000fd5b50919050565b608051612a026200028a6000396000818161066901526107b90152612a026000f3fe608060405234801561001057600080fd5b50600436106101cf5760003560e01c80636352211e11610104578063b88d4fde116100a2578063e6b11e4c11610071578063e6b11e4c146103b9578063e6fe95ba146103c1578063e985e9c5146103e3578063f2fde38b146103f6576101cf565b8063b88d4fde14610378578063c87b56dd1461038b578063d68756381461039e578063d8258d95146103b1576101cf565b80638da5cb5b116100de5780638da5cb5b1461033557806395d89b411461033d578063a22cb46514610345578063a654ae0714610358576101cf565b80636352211e1461030757806370a082311461031a578063715018a61461032d576101cf565b80632f745c59116101715780634f6ccce71161014b5780634f6ccce7146102bb57806355f804b3146102ce57806356bcf28c146102e1578063628cefb3146102f4576101cf565b80632f745c5914610282578063301779c81461029557806342842e0e146102a8576101cf565b8063095ea7b3116101ad578063095ea7b31461023257806318160ddd146102475780631d62ebd91461025c57806323b872dd1461026f576101cf565b806301ffc9a7146101d457806306fdde03146101fd578063081812fc14610212575b600080fd5b6101e76101e236600461201a565b610409565b6040516101f49190612170565b60405180910390f35b61020561046c565b6040516101f49190612193565b6102256102203660046120ac565b6104fe565b6040516101f4919061211f565b610245610240366004611e78565b61054a565b005b61024f6105e3565b6040516101f4919061283f565b61024f61026a366004611d11565b6105e9565b61024561027d366004611d5d565b61062d565b61024f610290366004611e78565b610638565b6102456102a3366004611ea1565b610749565b6102456102b6366004611d5d565b61079a565b61024f6102c93660046120ac565b6107b5565b6102456102dc366004612052565b6107fb565b6102456102ef366004611f0f565b610846565b610245610302366004612000565b610a7d565b6102256103153660046120ac565b610acf565b61024f610328366004611d11565b610ae1565b610245610b25565b610225610b70565b610205610b7f565b610245610353366004611e4f565b610b8e565b61036b610366366004611e78565b610c5c565b6040516101f49190612826565b610245610386366004611d98565b610ccf565b6102056103993660046120ac565b610d02565b6102456103ac366004611f41565b610d85565b61024f6110aa565b6101e76110b0565b6103d46103cf3660046120ac565b6110b9565b6040516101f49392919061217b565b6101e76103f1366004611d2b565b611105565b610245610404366004611d11565b611133565b60006001600160e01b031982166380ac58cd60e01b148061043a57506001600160e01b03198216635b5e139f60e01b145b8061045557506001600160e01b0319821663780e9d6360e01b145b806104645750610464826111a4565b90505b919050565b60606002805461047b9061290a565b80601f01602080910402602001604051908101604052809291908181526020018280546104a79061290a565b80156104f45780601f106104c9576101008083540402835291602001916104f4565b820191906000526020600020905b8154815290600101906020018083116104d757829003601f168201915b5050505050905090565b6000610509826111bd565b61052e5760405162461bcd60e51b8152600401610525906127d9565b60405180910390fd5b506000908152600660205260409020546001600160a01b031690565b600061055582610acf565b9050806001600160a01b0316836001600160a01b031614156105895760405162461bcd60e51b81526004016105259061268e565b806001600160a01b031661059b6111da565b6001600160a01b031614806105b757506105b7816103f16111da565b6105d35760405162461bcd60e51b815260040161052590612425565b6105de8383836111de565b505050565b60015490565b60006001600160a01b0382166106115760405162461bcd60e51b8152600401610525906122af565b506001600160a01b03166000908152600e602052604090205490565b6105de83838361123a565b600061064383610ae1565b82106106615760405162461bcd60e51b8152600401610525906121a6565b60008060005b7f0000000000000000000000000000000000000000000000000000000000000000811161072a576000818152600460209081526040918290208251808401909352546001600160a01b038116808452600160a01b9091046001600160401b031691830191909152156106d857805192505b866001600160a01b0316836001600160a01b03161415610717578584141561070557509250610743915050565b8361070f81612945565b945050600092505b508061072281612945565b915050610667565b5060405162461bcd60e51b81526004016105259061278b565b92915050565b8060005b818110156107945761078484848381811061077857634e487b7160e01b600052603260045260246000fd5b90506020020135611507565b61078d81612945565b905061074d565b50505050565b6105de83838360405180602001604052806000815250610ccf565b60007f00000000000000000000000000000000000000000000000000000000000000008211156107f75760405162461bcd60e51b815260040161052590612620565b5090565b6108036111da565b6001600160a01b0316610814610b70565b6001600160a01b03161461083a5760405162461bcd60e51b815260040161052590612513565b6105de60088383611bd2565b6000610851336105e9565b9050600082516001600160401b0381111561087c57634e487b7160e01b600052604160045260246000fd5b6040519080825280602002602001820160405280156108a5578160200160208202803683370190505b50905060005b8351811015610a7257336000908152600d6020526040812085519091908690849081106108e857634e487b7160e01b600052603260045260246000fd5b60209081029190910181015182528101919091526040016000206001015460ff16156109265760405162461bcd60e51b81526004016105259061239d565b8284828151811061094757634e487b7160e01b600052603260045260246000fd5b60200260200101511061096c5760405162461bcd60e51b8152600401610525906122fa565b336000908152600d6020526040812085519091908690849081106109a057634e487b7160e01b600052603260045260246000fd5b60200260200101518152602001908152602001600020600001548282815181106109da57634e487b7160e01b600052603260045260246000fd5b6020026020010181815250506001600d6000336001600160a01b03166001600160a01b031681526020019081526020016000206000868481518110610a2f57634e487b7160e01b600052603260045260246000fd5b6020026020010151815260200190815260200160002060010160006101000a81548160ff0219169083151502179055508080610a6a90612945565b9150506108ab565b506105de33826115d5565b610a856111da565b6001600160a01b0316610a96610b70565b6001600160a01b031614610abc5760405162461bcd60e51b815260040161052590612513565b600a805460ff1916911515919091179055565b6000610ada826115ef565b5192915050565b60006001600160a01b038216610b095760405162461bcd60e51b815260040161052590612482565b506001600160a01b031660009081526005602052604090205490565b610b2d6111da565b6001600160a01b0316610b3e610b70565b6001600160a01b031614610b645760405162461bcd60e51b815260040161052590612513565b610b6e600061165b565b565b6000546001600160a01b031690565b60606003805461047b9061290a565b610b966111da565b6001600160a01b0316826001600160a01b03161415610bc75760405162461bcd60e51b815260040161052590612597565b8060076000610bd46111da565b6001600160a01b03908116825260208083019390935260409182016000908120918716808252919093529120805460ff191692151592909217909155610c186111da565b6001600160a01b03167f17307eab39ab6107e8899845ad3d59bd9653f200f220920489ca2b5937696c3183604051610c509190612170565b60405180910390a35050565b610c64611c52565b610c6d836105e9565b8210610c8b5760405162461bcd60e51b815260040161052590612657565b506001600160a01b0382166000908152600d602090815260408083208484528252918290208251808401909352805483526001015460ff1615159082015292915050565b610cda84848461123a565b610ce6848484846116ab565b6107945760405162461bcd60e51b8152600401610525906126f7565b6060610d0d826111bd565b610d295760405162461bcd60e51b815260040161052590612548565b6000610d336117c7565b90506000815111610d535760405180602001604052806000815250610d7e565b80610d5d846117d6565b604051602001610d6e9291906120f0565b6040516020818303038152906040525b9392505050565b610d8d6111da565b6001600160a01b0316610d9e610b70565b6001600160a01b031614610dc45760405162461bcd60e51b815260040161052590612513565b60005b82518110156105de57610e00838281518110610df357634e487b7160e01b600052603260045260246000fd5b60200260200101516118f0565b15610e1d5760405162461bcd60e51b815260040161052590612278565b828181518110610e3d57634e487b7160e01b600052603260045260246000fd5b6020026020010151600014158015610e7e5750612710838281518110610e7357634e487b7160e01b600052603260045260246000fd5b602002602001015111155b610e9a5760405162461bcd60e51b8152600401610525906123fb565b6040518060400160405280838381518110610ec557634e487b7160e01b600052603260045260246000fd5b60200260200101516001600160a01b03168152602001426001600160401b0316815250600c6000858481518110610f0c57634e487b7160e01b600052603260045260246000fd5b60209081029190910181015182528181019290925260400160009081208351815494909301516001600160401b0316600160a01b0267ffffffffffffffff60a01b196001600160a01b039094166001600160a01b031990951694909417929092169290921790558251610fa690849084908110610f9957634e487b7160e01b600052603260045260246000fd5b60200260200101516105e9565b9050838281518110610fc857634e487b7160e01b600052603260045260246000fd5b6020026020010151600d6000858581518110610ff457634e487b7160e01b600052603260045260246000fd5b60200260200101516001600160a01b03166001600160a01b03168152602001908152602001600020600083815260200190815260200160002060000181905550600e600084848151811061105857634e487b7160e01b600052603260045260246000fd5b60200260200101516001600160a01b03166001600160a01b03168152602001908152602001600020600081548092919061109190612945565b91905055505080806110a290612945565b915050610dc7565b61271081565b600a5460ff1681565b6000818152600960205260408120548190819080156110e357600193506110e081426128c7565b92505b6000858152600b60205260409020546110fc908461289b565b93959294505050565b6001600160a01b03918216600090815260076020908152604080832093909416825291909152205460ff1690565b61113b6111da565b6001600160a01b031661114c610b70565b6001600160a01b0316146111725760405162461bcd60e51b815260040161052590612513565b6001600160a01b0381166111985760405162461bcd60e51b8152600401610525906121e8565b6111a18161165b565b50565b6001600160e01b031981166301ffc9a760e01b14919050565b6000908152600460205260409020546001600160a01b0316151590565b3390565b60008281526006602052604080822080546001600160a01b0319166001600160a01b0387811691821790925591518593918516917f8c5be1e5ebec7d5bd14f71427d1e84f3dd0314c0f7b2291e5b200ac8c7c3b92591a4505050565b6000611245826115ef565b9050600081600001516001600160a01b031661125f6111da565b6001600160a01b0316148061129457506112776111da565b6001600160a01b0316611289846104fe565b6001600160a01b0316145b806112a8575081516112a8906103f16111da565b9050806112c75760405162461bcd60e51b8152600401610525906125ce565b846001600160a01b031682600001516001600160a01b0316146112fc5760405162461bcd60e51b8152600401610525906124cd565b6001600160a01b0384166113225760405162461bcd60e51b815260040161052590612358565b61132f858585600161190d565b61133f60008484600001516111de565b6001600160a01b03851660009081526005602052604081208054600192906113689084906128c7565b90915550506001600160a01b038416600090815260056020526040812080546001929061139690849061289b565b90915550506040805180820182526001600160a01b0380871682526001600160401b03428116602080850191825260008981526004909152948520935184549151909216600160a01b0267ffffffffffffffff60a01b19929093166001600160a01b0319909116171617905561140d84600161289b565b6000818152600460205260409020549091506001600160a01b03166114b157611435816111bd565b156114b15760408051808201825284516001600160a01b0390811682526020808701516001600160401b0390811682850190815260008781526004909352949091209251835494516001600160a01b031990951692169190911767ffffffffffffffff60a01b1916600160a01b93909116929092029190911790555b83856001600160a01b0316876001600160a01b03167fddf252ad1be2c89b69c2b068fc378daa952ba7f163c4a11628f55a4df523b3ef60405160405180910390a46114ff8686866001610794565b505050505050565b61150f6111da565b6001600160a01b0316611521826115ef565b516001600160a01b0316146115485760405162461bcd60e51b815260040161052590612321565b6000818152600960205260409020548061159457600a5460ff1661157e5760405162461bcd60e51b8152600401610525906123cd565b60008281526009602052604090204290556115d1565b61159e81426128c7565b6000838152600b6020526040812080549091906115bc90849061289b565b90915550506000828152600960205260408120555b5050565b6115d1828260405180602001604052806000815250611961565b6115f7611c52565b611600826111bd565b61161c5760405162461bcd60e51b81526004016105259061222e565b506000908152600460209081526040918290208251808401909352546001600160a01b0381168352600160a01b90046001600160401b03169082015290565b600080546001600160a01b038381166001600160a01b0319831681178455604051919092169283917f8be0079c531659141344cd1fd0a4f28419497f9722a3daafe3b4186f6b6457e09190a35050565b60006116bf846001600160a01b0316611bc3565b156117bb57836001600160a01b031663150b7a026116db6111da565b8786866040518563ffffffff1660e01b81526004016116fd9493929190612133565b602060405180830381600087803b15801561171757600080fd5b505af1925050508015611747575060408051601f3d908101601f1916820190925261174491810190612036565b60015b6117a1573d808015611775576040519150601f19603f3d011682016040523d82523d6000602084013e61177a565b606091505b5080516117995760405162461bcd60e51b8152600401610525906126f7565b805181602001fd5b6001600160e01b031916630a85bd0160e11b1490506117bf565b5060015b949350505050565b60606008805461047b9061290a565b6060816117fb57506040805180820190915260018152600360fc1b6020820152610467565b8160005b8115611825578061180f81612945565b915061181e9050600a836128b3565b91506117ff565b6000816001600160401b0381111561184d57634e487b7160e01b600052604160045260246000fd5b6040519080825280601f01601f191660200182016040528015611877576020820181803683370190505b5090505b84156117bf5761188c6001836128c7565b9150611899600a86612960565b6118a490603061289b565b60f81b8183815181106118c757634e487b7160e01b600052603260045260246000fd5b60200101906001600160f81b031916908160001a9053506118e9600a866128b3565b945061187b565b6000908152600c60205260409020546001600160a01b0316151590565b81600061191a838361289b565b90505b808210156114ff57600082815260096020526040902054156119515760405162461bcd60e51b8152600401610525906126d0565b61195a82612945565b915061191d565b815160016000828254611974919061289b565b90915550506001600160a01b03831661199f5760405162461bcd60e51b81526004016105259061274a565b6119d5600084846000815181106119c657634e487b7160e01b600052603260045260246000fd5b6020026020010151855161190d565b81516001600160a01b038416600090815260056020526040812080549091906119ff90849061289b565b90915550600090505b8251811015611b8c57828181518110611a3157634e487b7160e01b600052603260045260246000fd5b6020026020010151846001600160a01b031660006001600160a01b03167fddf252ad1be2c89b69c2b068fc378daa952ba7f163c4a11628f55a4df523b3ef60405160405180910390a4611aae600085858481518110611aa057634e487b7160e01b600052603260045260246000fd5b6020026020010151856116ab565b611aca5760405162461bcd60e51b8152600401610525906126f7565b6040518060400160405280856001600160a01b03168152602001426001600160401b031681525060046000858481518110611b1557634e487b7160e01b600052603260045260246000fd5b6020908102919091018101518252818101929092526040016000208251815493909201516001600160401b0316600160a01b0267ffffffffffffffff60a01b196001600160a01b039093166001600160a01b0319909416939093179190911691909117905580611b8481612945565b915050611a08565b506105de60008484600081518110611bb457634e487b7160e01b600052603260045260246000fd5b60200260200101518551610794565b6001600160a01b03163b151590565b828054611bde9061290a565b90600052602060002090601f016020900481019282611c005760008555611c46565b82601f10611c195782800160ff19823516178555611c46565b82800160010185558215611c46579182015b82811115611c46578235825591602001919060010190611c2b565b506107f7929150611c69565b604080518082019091526000808252602082015290565b5b808211156107f75760008155600101611c6a565b80356001600160a01b038116811461046757600080fd5b600082601f830112611ca5578081fd5b81356020611cba611cb583612878565b612848565b8281528181019085830183850287018401881015611cd6578586fd5b855b85811015611cf457813584529284019290840190600101611cd8565b5090979650505050505050565b8035801515811461046757600080fd5b600060208284031215611d22578081fd5b610d7e82611c7e565b60008060408385031215611d3d578081fd5b611d4683611c7e565b9150611d5460208401611c7e565b90509250929050565b600080600060608486031215611d71578081fd5b611d7a84611c7e565b9250611d8860208501611c7e565b9150604084013590509250925092565b60008060008060808587031215611dad578081fd5b611db685611c7e565b93506020611dc5818701611c7e565b93506040860135925060608601356001600160401b0380821115611de7578384fd5b818801915088601f830112611dfa578384fd5b813581811115611e0c57611e0c6129a0565b611e1e601f8201601f19168501612848565b91508082528984828501011115611e33578485fd5b8084840185840137810190920192909252939692955090935050565b60008060408385031215611e61578182fd5b611e6a83611c7e565b9150611d5460208401611d01565b60008060408385031215611e8a578182fd5b611e9383611c7e565b946020939093013593505050565b60008060208385031215611eb3578182fd5b82356001600160401b0380821115611ec9578384fd5b818501915085601f830112611edc578384fd5b813581811115611eea578485fd5b8660208083028501011115611efd578485fd5b60209290920196919550909350505050565b600060208284031215611f20578081fd5b81356001600160401b03811115611f35578182fd5b6117bf84828501611c95565b60008060408385031215611f53578182fd5b82356001600160401b0380821115611f69578384fd5b611f7586838701611c95565b9350602091508185013581811115611f8b578384fd5b85019050601f81018613611f9d578283fd5b8035611fab611cb582612878565b81815283810190838501858402850186018a1015611fc7578687fd5b8694505b83851015611ff057611fdc81611c7e565b835260019490940193918501918501611fcb565b5080955050505050509250929050565b600060208284031215612011578081fd5b610d7e82611d01565b60006020828403121561202b578081fd5b8135610d7e816129b6565b600060208284031215612047578081fd5b8151610d7e816129b6565b60008060208385031215612064578182fd5b82356001600160401b038082111561207a578384fd5b818501915085601f83011261208d578384fd5b81358181111561209b578485fd5b866020828501011115611efd578485fd5b6000602082840312156120bd578081fd5b5035919050565b600081518084526120dc8160208601602086016128de565b601f01601f19169290920160200192915050565b600083516121028184602088016128de565b8351908301906121168183602088016128de565b01949350505050565b6001600160a01b0391909116815260200190565b6001600160a01b0385811682528416602082015260408101839052608060608201819052600090612166908301846120c4565b9695505050505050565b901515815260200190565b92151583526020830191909152604082015260600190565b600060208252610d7e60208301846120c4565b60208082526022908201527f455243373231413a206f776e657220696e646578206f7574206f6620626f756e604082015261647360f01b606082015260800190565b60208082526026908201527f4f776e61626c653a206e6577206f776e657220697320746865207a65726f206160408201526564647265737360d01b606082015260800190565b6020808252602a908201527f455243373231413a206f776e657220717565727920666f72206e6f6e657869736040820152693a32b73a103a37b5b2b760b11b606082015260800190565b60208082526018908201527f546f6b656e496420416c72656164792052657761726465640000000000000000604082015260600190565b6020808252602b908201527f426561724e4654533a2061646472657373207a65726f206973206e6f7420612060408201526a3b30b634b21037bbb732b960a91b606082015260800190565b6020808252600d908201526c092dcecc2d8d2c840d2dcc8caf609b1b604082015260600190565b60208082526018908201527f45524337323141436f6d6d6f6e3a204e6f74206f776e65720000000000000000604082015260600190565b60208082526025908201527f455243373231413a207472616e7366657220746f20746865207a65726f206164604082015264647265737360d81b606082015260800190565b602080825260169082015275105b1c9958591e4810db185a5b59590814995dd85c9960521b604082015260600190565b6020808252601490820152731099585c8e881c995cdd1a5b99c818db1bdcd95960621b604082015260600190565b60208082526010908201526f125b9d985b1a5908151bdad95b88125960821b604082015260600190565b60208082526039908201527f455243373231413a20617070726f76652063616c6c6572206973206e6f74206f60408201527f776e6572206e6f7220617070726f76656420666f7220616c6c00000000000000606082015260800190565b6020808252602b908201527f455243373231413a2062616c616e636520717565727920666f7220746865207a60408201526a65726f206164647265737360a81b606082015260800190565b60208082526026908201527f455243373231413a207472616e736665722066726f6d20696e636f72726563746040820152651037bbb732b960d11b606082015260800190565b6020808252818101527f4f776e61626c653a2063616c6c6572206973206e6f7420746865206f776e6572604082015260600190565b6020808252602f908201527f4552433732314d657461646174613a2055524920717565727920666f72206e6f60408201526e3732bc34b9ba32b73a103a37b5b2b760891b606082015260800190565b6020808252601a908201527f455243373231413a20617070726f766520746f2063616c6c6572000000000000604082015260600190565b60208082526032908201527f455243373231413a207472616e736665722063616c6c6572206973206e6f74206040820152711bdddb995c881b9bdc88185c1c1c9bdd995960721b606082015260800190565b6020808252601a908201527f476c6f62616c20696e646578206f7574206f6620626f756e6473000000000000604082015260600190565b60208082526019908201527f6f776e657220696e646578206f7574206f6620626f756e647300000000000000604082015260600190565b60208082526022908201527f455243373231413a20617070726f76616c20746f2063757272656e74206f776e60408201526132b960f11b606082015260800190565b6020808252600d908201526c426561723a2072657374696e6760981b604082015260600190565b60208082526033908201527f455243373231413a207472616e7366657220746f206e6f6e204552433732315260408201527232b1b2b4bb32b91034b6b83632b6b2b73a32b960691b606082015260800190565b60208082526021908201527f455243373231413a206d696e7420746f20746865207a65726f206164647265736040820152607360f81b606082015260800190565b6020808252602e908201527f455243373231413a20756e61626c6520746f2067657420746f6b656e206f662060408201526d0deeedccae440c4f240d2dcc8caf60931b606082015260800190565b6020808252602d908201527f455243373231413a20617070726f76656420717565727920666f72206e6f6e6560408201526c3c34b9ba32b73a103a37b5b2b760991b606082015260800190565b8151815260209182015115159181019190915260400190565b90815260200190565b604051601f8201601f191681016001600160401b0381118282101715612870576128706129a0565b604052919050565b60006001600160401b03821115612891576128916129a0565b5060209081020190565b600082198211156128ae576128ae612974565b500190565b6000826128c2576128c261298a565b500490565b6000828210156128d9576128d9612974565b500390565b60005b838110156128f95781810151838201526020016128e1565b838111156107945750506000910152565b60028104600182168061291e57607f821691505b6020821081141561293f57634e487b7160e01b600052602260045260246000fd5b50919050565b600060001982141561295957612959612974565b5060010190565b60008261296f5761296f61298a565b500690565b634e487b7160e01b600052601160045260246000fd5b634e487b7160e01b600052601260045260246000fd5b634e487b7160e01b600052604160045260246000fd5b6001600160e01b0319811681146111a157600080fdfea2646970667358221220c54764532c4f4666431e435a9c0806854a2763a3187eb03e8e0e2f1fd7a7e6dd64736f6c63430008010033",
  "linkReferences": {},
  "deployedLinkReferences": {}
}